{
  "_format": "hh-sol-artifact-1",
  "contractName": "PriceOracle",
  "sourceName": "contracts/PriceOracle.sol",
  "abi": [
    {
      "inputs": [
        {
          "internalType": "address",
          "name": "ethUsdFeed",
          "type": "address"
        }
      ],
      "stateMutability": "nonpayable",
      "type": "constructor"
    },
    {
      "inputs": [
        {
          "internalType": "address",
          "name": "token",
          "type": "address"
        },
        {
          "internalType": "uint256",
          "name": "amount",
          "type": "uint256"
        }
      ],
      "name": "convertToUSD",
      "outputs": [
        {
          "internalType": "uint256",
          "name": "",
          "type": "uint256"
        }
      ],
      "stateMutability": "view",
      "type": "function"
    },
    {
      "inputs": [],
      "name": "getEthUsdPrice",
      "outputs": [
        {
          "internalType": "int256",
          "name": "",
          "type": "int256"
        }
      ],
      "stateMutability": "view",
      "type": "function"
    },
    {
      "inputs": [
        {
          "internalType": "address",
          "name": "token",
          "type": "address"
        }
      ],
      "name": "getLatestPrice",
      "outputs": [
        {
          "internalType": "int256",
          "name": "",
          "type": "int256"
        }
      ],
      "stateMutability": "view",
      "type": "function"
    },
    {
      "inputs": [
        {
          "internalType": "address",
          "name": "",
          "type": "address"
        }
      ],
      "name": "priceFeeds",
      "outputs": [
        {
          "internalType": "contract AggregatorV3Interface",
          "name": "",
          "type": "address"
        }
      ],
      "stateMutability": "view",
      "type": "function"
    },
    {
      "inputs": [
        {
          "internalType": "address",
          "name": "token",
          "type": "address"
        },
        {
          "internalType": "address",
          "name": "feed",
          "type": "address"
        }
      ],
      "name": "setPriceFeed",
      "outputs": [],
      "stateMutability": "nonpayable",
      "type": "function"
    },
    {
      "inputs": [
        {
          "internalType": "address",
          "name": "token",
          "type": "address"
        },
        {
          "internalType": "uint256",
          "name": "price",
          "type": "uint256"
        }
      ],
      "name": "setTestPrice",
      "outputs": [],
      "stateMutability": "nonpayable",
      "type": "function"
    },
    {
      "inputs": [
        {
          "internalType": "uint256",
          "name": "",
          "type": "uint256"
        }
      ],
      "name": "testEthPrices",
      "outputs": [
        {
          "internalType": "uint256",
          "name": "",
          "type": "uint256"
        }
      ],
      "stateMutability": "view",
      "type": "function"
    },
    {
      "inputs": [
        {
          "internalType": "address",
          "name": "",
          "type": "address"
        }
      ],
      "name": "testTokenPrices",
      "outputs": [
        {
          "internalType": "uint256",
          "name": "",
          "type": "uint256"
        }
      ],
      "stateMutability": "view",
      "type": "function"
    }
  ],
  "bytecode": "0x608060405234801561001057600080fd5b50604051610fcd380380610fcd83398181016040528101906100329190610118565b806000808073ffffffffffffffffffffffffffffffffffffffff1673ffffffffffffffffffffffffffffffffffffffff16815260200190815260200160002060006101000a81548173ffffffffffffffffffffffffffffffffffffffff021916908373ffffffffffffffffffffffffffffffffffffffff16021790555050610145565b600080fd5b600073ffffffffffffffffffffffffffffffffffffffff82169050919050565b60006100e5826100ba565b9050919050565b6100f5816100da565b811461010057600080fd5b50565b600081519050610112816100ec565b92915050565b60006020828403121561012e5761012d6100b5565b5b600061013c84828501610103565b91505092915050565b610e79806101546000396000f3fe608060405234801561001057600080fd5b50600436106100885760003560e01c80639dcb511a1161005b5780639dcb511a14610125578063a0a8045e14610155578063d2fe163114610173578063f08a25ed146101a357610088565b806316345f181461008d57806323ebc76e146100bd578063332c6397146100ed57806376e1128614610109575b600080fd5b6100a760048036038101906100a2919061084e565b6101d3565b6040516100b49190610894565b60405180910390f35b6100d760048036038101906100d291906108e5565b610327565b6040516100e49190610921565b60405180910390f35b6101076004803603810190610102919061093c565b61033f565b005b610123600480360381019061011e919061097c565b6103d9565b005b61013f600480360381019061013a919061084e565b61045a565b60405161014c9190610a1b565b60405180910390f35b61015d61048d565b60405161016a9190610894565b60405180910390f35b61018d6004803603810190610188919061084e565b6105df565b60405161019a9190610921565b60405180910390f35b6101bd60048036038101906101b8919061093c565b6105f7565b6040516101ca9190610921565b60405180910390f35b6000806000808473ffffffffffffffffffffffffffffffffffffffff1673ffffffffffffffffffffffffffffffffffffffff16815260200190815260200160002060009054906101000a900473ffffffffffffffffffffffffffffffffffffffff169050600073ffffffffffffffffffffffffffffffffffffffff168173ffffffffffffffffffffffffffffffffffffffff16036102a6576040517f08c379a000000000000000000000000000000000000000000000000000000000815260040161029d90610ab9565b60405180910390fd5b60008173ffffffffffffffffffffffffffffffffffffffff1663feaf968c6040518163ffffffff1660e01b815260040160a060405180830381865afa1580156102f3573d6000803e3d6000fd5b505050506040513d601f19601f820116820180604052508101906103179190610b5c565b5050509150508092505050919050565b60016020528060005260406000206000915090505481565b600073ffffffffffffffffffffffffffffffffffffffff168273ffffffffffffffffffffffffffffffffffffffff1603610390578060016000468152602001908152602001600020819055506103d5565b80600260008473ffffffffffffffffffffffffffffffffffffffff1673ffffffffffffffffffffffffffffffffffffffff168152602001908152602001600020819055505b5050565b806000808473ffffffffffffffffffffffffffffffffffffffff1673ffffffffffffffffffffffffffffffffffffffff16815260200190815260200160002060006101000a81548173ffffffffffffffffffffffffffffffffffffffff021916908373ffffffffffffffffffffffffffffffffffffffff1602179055505050565b60006020528060005260406000206000915054906101000a900473ffffffffffffffffffffffffffffffffffffffff1681565b6000806000808073ffffffffffffffffffffffffffffffffffffffff1673ffffffffffffffffffffffffffffffffffffffff16815260200190815260200160002060009054906101000a900473ffffffffffffffffffffffffffffffffffffffff169050600073ffffffffffffffffffffffffffffffffffffffff168173ffffffffffffffffffffffffffffffffffffffff1603610560576040517f08c379a000000000000000000000000000000000000000000000000000000000815260040161055790610c23565b60405180910390fd5b60008173ffffffffffffffffffffffffffffffffffffffff1663feaf968c6040518163ffffffff1660e01b815260040160a060405180830381865afa1580156105ad573d6000803e3d6000fd5b505050506040513d601f19601f820116820180604052508101906105d19190610b5c565b505050915050809250505090565b60026020528060005260406000206000915090505481565b60008073ffffffffffffffffffffffffffffffffffffffff168373ffffffffffffffffffffffffffffffffffffffff16036107055760003073ffffffffffffffffffffffffffffffffffffffff1663a0a8045e6040518163ffffffff1660e01b8152600401602060405180830381865afa158015610679573d6000803e3d6000fd5b505050506040513d601f19601f8201168201806040525081019061069d9190610c43565b9050600081136106e2576040517f08c379a00000000000000000000000000000000000000000000000000000000081526004016106d990610cbc565b60405180910390fd5b6305f5e10081846106f39190610d0b565b6106fd9190610d7c565b9150506107e5565b60003073ffffffffffffffffffffffffffffffffffffffff166316345f18856040518263ffffffff1660e01b81526004016107409190610dbc565b602060405180830381865afa15801561075d573d6000803e3d6000fd5b505050506040513d601f19601f820116820180604052508101906107819190610c43565b9050600081136107c6576040517f08c379a00000000000000000000000000000000000000000000000000000000081526004016107bd90610e23565b60405180910390fd5b6305f5e10081846107d79190610d0b565b6107e19190610d7c565b9150505b92915050565b600080fd5b600073ffffffffffffffffffffffffffffffffffffffff82169050919050565b600061081b826107f0565b9050919050565b61082b81610810565b811461083657600080fd5b50565b60008135905061084881610822565b92915050565b600060208284031215610864576108636107eb565b5b600061087284828501610839565b91505092915050565b6000819050919050565b61088e8161087b565b82525050565b60006020820190506108a96000830184610885565b92915050565b6000819050919050565b6108c2816108af565b81146108cd57600080fd5b50565b6000813590506108df816108b9565b92915050565b6000602082840312156108fb576108fa6107eb565b5b6000610909848285016108d0565b91505092915050565b61091b816108af565b82525050565b60006020820190506109366000830184610912565b92915050565b60008060408385031215610953576109526107eb565b5b600061096185828601610839565b9250506020610972858286016108d0565b9150509250929050565b60008060408385031215610993576109926107eb565b5b60006109a185828601610839565b92505060206109b285828601610839565b9150509250929050565b6000819050919050565b60006109e16109dc6109d7846107f0565b6109bc565b6107f0565b9050919050565b60006109f3826109c6565b9050919050565b6000610a05826109e8565b9050919050565b610a15816109fa565b82525050565b6000602082019050610a306000830184610a0c565b92915050565b600082825260208201905092915050565b7f50726963652066656564206e6f742073657420666f72207468697320746f6b6560008201527f6e00000000000000000000000000000000000000000000000000000000000000602082015250565b6000610aa3602183610a36565b9150610aae82610a47565b604082019050919050565b60006020820190508181036000830152610ad281610a96565b9050919050565b600069ffffffffffffffffffff82169050919050565b610af881610ad9565b8114610b0357600080fd5b50565b600081519050610b1581610aef565b92915050565b610b248161087b565b8114610b2f57600080fd5b50565b600081519050610b4181610b1b565b92915050565b600081519050610b56816108b9565b92915050565b600080600080600060a08688031215610b7857610b776107eb565b5b6000610b8688828901610b06565b9550506020610b9788828901610b32565b9450506040610ba888828901610b47565b9350506060610bb988828901610b47565b9250506080610bca88828901610b06565b9150509295509295909350565b7f50726963652066656564206e6f742073657420666f7220455448000000000000600082015250565b6000610c0d601a83610a36565b9150610c1882610bd7565b602082019050919050565b60006020820190508181036000830152610c3c81610c00565b9050919050565b600060208284031215610c5957610c586107eb565b5b6000610c6784828501610b32565b91505092915050565b7f496e76616c696420455448207072696365000000000000000000000000000000600082015250565b6000610ca6601183610a36565b9150610cb182610c70565b602082019050919050565b60006020820190508181036000830152610cd581610c99565b9050919050565b7f4e487b7100000000000000000000000000000000000000000000000000000000600052601160045260246000fd5b6000610d16826108af565b9150610d21836108af565b9250828202610d2f816108af565b91508282048414831517610d4657610d45610cdc565b5b5092915050565b7f4e487b7100000000000000000000000000000000000000000000000000000000600052601260045260246000fd5b6000610d87826108af565b9150610d92836108af565b925082610da257610da1610d4d565b5b828204905092915050565b610db681610810565b82525050565b6000602082019050610dd16000830184610dad565b92915050565b7f496e76616c696420707269636500000000000000000000000000000000000000600082015250565b6000610e0d600d83610a36565b9150610e1882610dd7565b602082019050919050565b60006020820190508181036000830152610e3c81610e00565b905091905056fea264697066735822122042b639323f24efda3c20f650295dd099311b32ea6b8bf1d4fbdd5f2e4c95a05364736f6c634300081c0033",
  "linkReferences": {},
  "deployedLinkReferences": {}
}