{
  "_format": "hh-sol-artifact-1",
  "contractName": "Auction",
  "sourceName": "contracts/Auction.sol",
  "abi": [
    {
      "inputs": [],
      "stateMutability": "nonpayable",
      "type": "constructor"
    },
    {
      "anonymous": false,
      "inputs": [
        {
          "indexed": false,
          "internalType": "address",
          "name": "previousAdmin",
          "type": "address"
        },
        {
          "indexed": false,
          "internalType": "address",
          "name": "newAdmin",
          "type": "address"
        }
      ],
      "name": "AdminChanged",
      "type": "event"
    },
    {
      "anonymous": false,
      "inputs": [
        {
          "indexed": true,
          "internalType": "address",
          "name": "beacon",
          "type": "address"
        }
      ],
      "name": "BeaconUpgraded",
      "type": "event"
    },
    {
      "anonymous": false,
      "inputs": [
        {
          "indexed": false,
          "internalType": "uint8",
          "name": "version",
          "type": "uint8"
        }
      ],
      "name": "Initialized",
      "type": "event"
    },
    {
      "anonymous": false,
      "inputs": [
        {
          "indexed": true,
          "internalType": "address",
          "name": "previousOwner",
          "type": "address"
        },
        {
          "indexed": true,
          "internalType": "address",
          "name": "newOwner",
          "type": "address"
        }
      ],
      "name": "OwnershipTransferred",
      "type": "event"
    },
    {
      "anonymous": false,
      "inputs": [
        {
          "indexed": true,
          "internalType": "address",
          "name": "implementation",
          "type": "address"
        }
      ],
      "name": "Upgraded",
      "type": "event"
    },
    {
      "inputs": [],
      "name": "auctionItem",
      "outputs": [
        {
          "internalType": "address",
          "name": "nftContract",
          "type": "address"
        },
        {
          "internalType": "uint256",
          "name": "tokenId",
          "type": "uint256"
        },
        {
          "internalType": "address",
          "name": "seller",
          "type": "address"
        },
        {
          "internalType": "uint256",
          "name": "startTime",
          "type": "uint256"
        },
        {
          "internalType": "uint256",
          "name": "endTime",
          "type": "uint256"
        },
        {
          "internalType": "bool",
          "name": "ended",
          "type": "bool"
        }
      ],
      "stateMutability": "view",
      "type": "function"
    },
    {
      "inputs": [],
      "name": "endAuction",
      "outputs": [],
      "stateMutability": "nonpayable",
      "type": "function"
    },
    {
      "inputs": [],
      "name": "getAuctionItem",
      "outputs": [
        {
          "components": [
            {
              "internalType": "address",
              "name": "nftContract",
              "type": "address"
            },
            {
              "internalType": "uint256",
              "name": "tokenId",
              "type": "uint256"
            },
            {
              "internalType": "address",
              "name": "seller",
              "type": "address"
            },
            {
              "internalType": "uint256",
              "name": "startTime",
              "type": "uint256"
            },
            {
              "internalType": "uint256",
              "name": "endTime",
              "type": "uint256"
            },
            {
              "internalType": "bool",
              "name": "ended",
              "type": "bool"
            }
          ],
          "internalType": "struct Auction.AuctionItem",
          "name": "",
          "type": "tuple"
        }
      ],
      "stateMutability": "view",
      "type": "function"
    },
    {
      "inputs": [],
      "name": "getHighestBid",
      "outputs": [
        {
          "components": [
            {
              "internalType": "address",
              "name": "bidder",
              "type": "address"
            },
            {
              "internalType": "address",
              "name": "token",
              "type": "address"
            },
            {
              "internalType": "uint256",
              "name": "amount",
              "type": "uint256"
            },
            {
              "internalType": "uint256",
              "name": "timestamp",
              "type": "uint256"
            }
          ],
          "internalType": "struct Auction.Bid",
          "name": "",
          "type": "tuple"
        }
      ],
      "stateMutability": "view",
      "type": "function"
    },
    {
      "inputs": [],
      "name": "highestBid",
      "outputs": [
        {
          "internalType": "address",
          "name": "bidder",
          "type": "address"
        },
        {
          "internalType": "address",
          "name": "token",
          "type": "address"
        },
        {
          "internalType": "uint256",
          "name": "amount",
          "type": "uint256"
        },
        {
          "internalType": "uint256",
          "name": "timestamp",
          "type": "uint256"
        }
      ],
      "stateMutability": "view",
      "type": "function"
    },
    {
      "inputs": [
        {
          "internalType": "address",
          "name": "_nftContract",
          "type": "address"
        },
        {
          "internalType": "uint256",
          "name": "_tokenId",
          "type": "uint256"
        },
        {
          "internalType": "address",
          "name": "_seller",
          "type": "address"
        },
        {
          "internalType": "uint256",
          "name": "_startTime",
          "type": "uint256"
        },
        {
          "internalType": "uint256",
          "name": "_endTime",
          "type": "uint256"
        },
        {
          "internalType": "address",
          "name": "_priceOracle",
          "type": "address"
        }
      ],
      "name": "initialize",
      "outputs": [],
      "stateMutability": "nonpayable",
      "type": "function"
    },
    {
      "inputs": [],
      "name": "owner",
      "outputs": [
        {
          "internalType": "address",
          "name": "",
          "type": "address"
        }
      ],
      "stateMutability": "view",
      "type": "function"
    },
    {
      "inputs": [
        {
          "internalType": "address",
          "name": "_token",
          "type": "address"
        },
        {
          "internalType": "uint256",
          "name": "_amount",
          "type": "uint256"
        }
      ],
      "name": "placeBid",
      "outputs": [],
      "stateMutability": "payable",
      "type": "function"
    },
    {
      "inputs": [],
      "name": "priceOracle",
      "outputs": [
        {
          "internalType": "contract PriceOracle",
          "name": "",
          "type": "address"
        }
      ],
      "stateMutability": "view",
      "type": "function"
    },
    {
      "inputs": [],
      "name": "proxiableUUID",
      "outputs": [
        {
          "internalType": "bytes32",
          "name": "",
          "type": "bytes32"
        }
      ],
      "stateMutability": "view",
      "type": "function"
    },
    {
      "inputs": [],
      "name": "renounceOwnership",
      "outputs": [],
      "stateMutability": "nonpayable",
      "type": "function"
    },
    {
      "inputs": [
        {
          "internalType": "address",
          "name": "newOwner",
          "type": "address"
        }
      ],
      "name": "transferOwnership",
      "outputs": [],
      "stateMutability": "nonpayable",
      "type": "function"
    },
    {
      "inputs": [
        {
          "internalType": "address",
          "name": "newImplementation",
          "type": "address"
        }
      ],
      "name": "upgradeTo",
      "outputs": [],
      "stateMutability": "nonpayable",
      "type": "function"
    },
    {
      "inputs": [
        {
          "internalType": "address",
          "name": "newImplementation",
          "type": "address"
        },
        {
          "internalType": "bytes",
          "name": "data",
          "type": "bytes"
        }
      ],
      "name": "upgradeToAndCall",
      "outputs": [],
      "stateMutability": "payable",
      "type": "function"
    },
    {
      "stateMutability": "payable",
      "type": "receive"
    }
  ],
  "bytecode": "0x60a06040523073ffffffffffffffffffffffffffffffffffffffff1660809073ffffffffffffffffffffffffffffffffffffffff1681525034801561004357600080fd5b5061005261005760201b60201c565b6101f1565b600060019054906101000a900460ff16156100a7576040517f08c379a000000000000000000000000000000000000000000000000000000000815260040161009e9061019a565b60405180910390fd5b60ff801660008054906101000a900460ff1660ff16146101155760ff6000806101000a81548160ff021916908360ff1602179055507f7f26b83ff96e1f2b6a682f133852f6798a09c465da95921460cefb384740249860ff60405161010c91906101d6565b60405180910390a15b565b600082825260208201905092915050565b7f496e697469616c697a61626c653a20636f6e747261637420697320696e69746960008201527f616c697a696e6700000000000000000000000000000000000000000000000000602082015250565b6000610184602783610117565b915061018f82610128565b604082019050919050565b600060208201905081810360008301526101b381610177565b9050919050565b600060ff82169050919050565b6101d0816101ba565b82525050565b60006020820190506101eb60008301846101c7565b92915050565b6080516137886102286000396000818161042a015281816104b80152818161068c0152818161071a01526107ca01526137886000f3fe6080604052600436106100e15760003560e01c8063871b62361161007f578063d57bde7911610059578063d57bde7914610279578063d98b9bb5146102a7578063f2fde38b146102c3578063fe67a54b146102ec576100e8565b8063871b6236146101f55780638da5cb5b1461021e578063c2c042ca14610249576100e8565b80634979440a116100bb5780634979440a1461016c5780634f1ef2861461019757806352d1902d146101b3578063715018a6146101de576100e8565b806304de63a5146100ed5780632630c12f146101185780633659cfe614610143576100e8565b366100e857005b600080fd5b3480156100f957600080fd5b50610102610303565b60405161010f919061235e565b60405180910390f35b34801561012457600080fd5b5061012d610402565b60405161013a91906123d8565b60405180910390f35b34801561014f57600080fd5b5061016a60048036038101906101659190612433565b610428565b005b34801561017857600080fd5b506101816105b0565b60405161018e91906124b5565b60405180910390f35b6101b160048036038101906101ac9190612616565b61068a565b005b3480156101bf57600080fd5b506101c86107c6565b6040516101d5919061268b565b60405180910390f35b3480156101ea57600080fd5b506101f361087f565b005b34801561020157600080fd5b5061021c600480360381019061021791906126d2565b610893565b005b34801561022a57600080fd5b50610233610d1f565b604051610240919061276e565b60405180910390f35b34801561025557600080fd5b5061025e610d49565b604051610270969594939291906127a7565b60405180910390f35b34801561028557600080fd5b5061028e610dc0565b60405161029e9493929190612808565b60405180910390f35b6102c160048036038101906102bc919061284d565b610e1e565b005b3480156102cf57600080fd5b506102ea60048036038101906102e59190612433565b6115d4565b005b3480156102f857600080fd5b50610301611657565b005b61030b6121b6565b60cd6040518060c00160405290816000820160009054906101000a900473ffffffffffffffffffffffffffffffffffffffff1673ffffffffffffffffffffffffffffffffffffffff1673ffffffffffffffffffffffffffffffffffffffff168152602001600182015481526020016002820160009054906101000a900473ffffffffffffffffffffffffffffffffffffffff1673ffffffffffffffffffffffffffffffffffffffff1673ffffffffffffffffffffffffffffffffffffffff16815260200160038201548152602001600482015481526020016005820160009054906101000a900460ff161515151581525050905090565b60d360009054906101000a900473ffffffffffffffffffffffffffffffffffffffff1681565b7f000000000000000000000000000000000000000000000000000000000000000073ffffffffffffffffffffffffffffffffffffffff163073ffffffffffffffffffffffffffffffffffffffff16036104b6576040517f08c379a00000000000000000000000000000000000000000000000000000000081526004016104ad90612910565b60405180910390fd5b7f000000000000000000000000000000000000000000000000000000000000000073ffffffffffffffffffffffffffffffffffffffff166104f5611aac565b73ffffffffffffffffffffffffffffffffffffffff161461054b576040517f08c379a0000000000000000000000000000000000000000000000000000000008152600401610542906129a2565b60405180910390fd5b61055481611b03565b6105ad81600067ffffffffffffffff811115610573576105726124eb565b5b6040519080825280601f01601f1916602001820160405280156105a55781602001600182028036833780820191505090505b506000611b0e565b50565b6105b861221a565b60c96040518060800160405290816000820160009054906101000a900473ffffffffffffffffffffffffffffffffffffffff1673ffffffffffffffffffffffffffffffffffffffff1673ffffffffffffffffffffffffffffffffffffffff1681526020016001820160009054906101000a900473ffffffffffffffffffffffffffffffffffffffff1673ffffffffffffffffffffffffffffffffffffffff1673ffffffffffffffffffffffffffffffffffffffff16815260200160028201548152602001600382015481525050905090565b7f000000000000000000000000000000000000000000000000000000000000000073ffffffffffffffffffffffffffffffffffffffff163073ffffffffffffffffffffffffffffffffffffffff1603610718576040517f08c379a000000000000000000000000000000000000000000000000000000000815260040161070f90612910565b60405180910390fd5b7f000000000000000000000000000000000000000000000000000000000000000073ffffffffffffffffffffffffffffffffffffffff16610757611aac565b73ffffffffffffffffffffffffffffffffffffffff16146107ad576040517f08c379a00000000000000000000000000000000000000000000000000000000081526004016107a4906129a2565b60405180910390fd5b6107b682611b03565b6107c282826001611b0e565b5050565b60007f000000000000000000000000000000000000000000000000000000000000000073ffffffffffffffffffffffffffffffffffffffff163073ffffffffffffffffffffffffffffffffffffffff1614610856576040517f08c379a000000000000000000000000000000000000000000000000000000000815260040161084d90612a34565b60405180910390fd5b7f360894a13ba1a3210667c828492db98dca3e2076cc3735a920a3ca505d382bbc60001b905090565b610887611c7c565b6108916000611cfa565b565b60008060019054906101000a900460ff161590508080156108c45750600160008054906101000a900460ff1660ff16105b806108f157506108d330611dc0565b1580156108f05750600160008054906101000a900460ff1660ff16145b5b610930576040517f08c379a000000000000000000000000000000000000000000000000000000000815260040161092790612ac6565b60405180910390fd5b60016000806101000a81548160ff021916908360ff160217905550801561096d576001600060016101000a81548160ff0219169083151502179055505b610975611de3565b61097d611e3c565b600073ffffffffffffffffffffffffffffffffffffffff168773ffffffffffffffffffffffffffffffffffffffff16036109ec576040517f08c379a00000000000000000000000000000000000000000000000000000000081526004016109e390612b32565b60405180910390fd5b600073ffffffffffffffffffffffffffffffffffffffff168573ffffffffffffffffffffffffffffffffffffffff1603610a5b576040517f08c379a0000000000000000000000000000000000000000000000000000000008152600401610a5290612b9e565b60405180910390fd5b42841015610a9e576040517f08c379a0000000000000000000000000000000000000000000000000000000008152600401610a9590612c0a565b60405180910390fd5b838311610ae0576040517f08c379a0000000000000000000000000000000000000000000000000000000008152600401610ad790612c9c565b60405180910390fd5b600073ffffffffffffffffffffffffffffffffffffffff168273ffffffffffffffffffffffffffffffffffffffff1603610b4f576040517f08c379a0000000000000000000000000000000000000000000000000000000008152600401610b4690612d08565b60405180910390fd5b6040518060c001604052808873ffffffffffffffffffffffffffffffffffffffff1681526020018781526020018673ffffffffffffffffffffffffffffffffffffffff1681526020018581526020018481526020016000151581525060cd60008201518160000160006101000a81548173ffffffffffffffffffffffffffffffffffffffff021916908373ffffffffffffffffffffffffffffffffffffffff1602179055506020820151816001015560408201518160020160006101000a81548173ffffffffffffffffffffffffffffffffffffffff021916908373ffffffffffffffffffffffffffffffffffffffff160217905550606082015181600301556080820151816004015560a08201518160050160006101000a81548160ff0219169083151502179055509050508160d360006101000a81548173ffffffffffffffffffffffffffffffffffffffff021916908373ffffffffffffffffffffffffffffffffffffffff1602179055508015610d165760008060016101000a81548160ff0219169083151502179055507f7f26b83ff96e1f2b6a682f133852f6798a09c465da95921460cefb38474024986001604051610d0d9190612d70565b60405180910390a15b50505050505050565b6000603360009054906101000a900473ffffffffffffffffffffffffffffffffffffffff16905090565b60cd8060000160009054906101000a900473ffffffffffffffffffffffffffffffffffffffff16908060010154908060020160009054906101000a900473ffffffffffffffffffffffffffffffffffffffff16908060030154908060040154908060050160009054906101000a900460ff16905086565b60c98060000160009054906101000a900473ffffffffffffffffffffffffffffffffffffffff16908060010160009054906101000a900473ffffffffffffffffffffffffffffffffffffffff16908060020154908060030154905084565b60cd60030154421015610e66576040517f08c379a0000000000000000000000000000000000000000000000000000000008152600401610e5d90612dd7565b60405180910390fd5b60cd60040154421115610eae576040517f08c379a0000000000000000000000000000000000000000000000000000000008152600401610ea590612e43565b60405180910390fd5b60cd60050160009054906101000a900460ff1615610f01576040517f08c379a0000000000000000000000000000000000000000000000000000000008152600401610ef890612eaf565b60405180910390fd5b60008111610f44576040517f08c379a0000000000000000000000000000000000000000000000000000000008152600401610f3b90612f41565b60405180910390fd5b60008073ffffffffffffffffffffffffffffffffffffffff168373ffffffffffffffffffffffffffffffffffffffff160361106157813414610fbb576040517f08c379a0000000000000000000000000000000000000000000000000000000008152600401610fb290612fad565b60405180910390fd5b60d360009054906101000a900473ffffffffffffffffffffffffffffffffffffffff1673ffffffffffffffffffffffffffffffffffffffff1663f08a25ed6000846040518363ffffffff1660e01b8152600401611019929190612fcd565b602060405180830381865afa158015611036573d6000803e3d6000fd5b505050506040513d601f19601f8201168201806040525081019061105a919061300b565b90506111c6565b600034146110a4576040517f08c379a000000000000000000000000000000000000000000000000000000000815260040161109b90613084565b60405180910390fd5b8273ffffffffffffffffffffffffffffffffffffffff166323b872dd3330856040518463ffffffff1660e01b81526004016110e1939291906130a4565b6020604051808303816000875af1158015611100573d6000803e3d6000fd5b505050506040513d601f19601f820116820180604052508101906111249190613107565b5060d360009054906101000a900473ffffffffffffffffffffffffffffffffffffffff1673ffffffffffffffffffffffffffffffffffffffff1663f08a25ed84846040518363ffffffff1660e01b8152600401611182929190612fcd565b602060405180830381865afa15801561119f573d6000803e3d6000fd5b505050506040513d601f19601f820116820180604052508101906111c3919061300b565b90505b60008060c96002015411156112a05760d360009054906101000a900473ffffffffffffffffffffffffffffffffffffffff1673ffffffffffffffffffffffffffffffffffffffff1663f08a25ed60c960010160009054906101000a900473ffffffffffffffffffffffffffffffffffffffff1660c9600201546040518363ffffffff1660e01b815260040161125c929190612fcd565b602060405180830381865afa158015611279573d6000803e3d6000fd5b505050506040513d601f19601f8201168201806040525081019061129d919061300b565b90505b8082116112e2576040517f08c379a00000000000000000000000000000000000000000000000000000000081526004016112d9906131a6565b60405180910390fd5b600073ffffffffffffffffffffffffffffffffffffffff1660c960000160009054906101000a900473ffffffffffffffffffffffffffffffffffffffff1673ffffffffffffffffffffffffffffffffffffffff16146114da57600073ffffffffffffffffffffffffffffffffffffffff1660c960010160009054906101000a900473ffffffffffffffffffffffffffffffffffffffff1673ffffffffffffffffffffffffffffffffffffffff160361140a5760c960000160009054906101000a900473ffffffffffffffffffffffffffffffffffffffff1673ffffffffffffffffffffffffffffffffffffffff166108fc60c9600201549081150290604051600060405180830381858888f19350505050158015611404573d6000803e3d6000fd5b506114d9565b60c960010160009054906101000a900473ffffffffffffffffffffffffffffffffffffffff1673ffffffffffffffffffffffffffffffffffffffff1663a9059cbb60c960000160009054906101000a900473ffffffffffffffffffffffffffffffffffffffff1660c9600201546040518363ffffffff1660e01b8152600401611494929190612fcd565b6020604051808303816000875af11580156114b3573d6000803e3d6000fd5b505050506040513d601f19601f820116820180604052508101906114d79190613107565b505b5b60405180608001604052803373ffffffffffffffffffffffffffffffffffffffff1681526020018573ffffffffffffffffffffffffffffffffffffffff1681526020018481526020014281525060c960008201518160000160006101000a81548173ffffffffffffffffffffffffffffffffffffffff021916908373ffffffffffffffffffffffffffffffffffffffff16021790555060208201518160010160006101000a81548173ffffffffffffffffffffffffffffffffffffffff021916908373ffffffffffffffffffffffffffffffffffffffff160217905550604082015181600201556060820151816003015590505050505050565b6115dc611c7c565b600073ffffffffffffffffffffffffffffffffffffffff168173ffffffffffffffffffffffffffffffffffffffff160361164b576040517f08c379a000000000000000000000000000000000000000000000000000000000815260040161164290613238565b60405180910390fd5b61165481611cfa565b50565b60cd60050160009054906101000a900460ff16156116aa576040517f08c379a00000000000000000000000000000000000000000000000000000000081526004016116a190612e43565b60405180910390fd5b60cd60040154421015806116d4575060cd6003015442101580156116d35750600060c960020154115b5b611713576040517f08c379a000000000000000000000000000000000000000000000000000000000815260040161170a906132a4565b60405180910390fd5b600160cd60050160006101000a81548160ff021916908315150217905550600073ffffffffffffffffffffffffffffffffffffffff1660c960000160009054906101000a900473ffffffffffffffffffffffffffffffffffffffff1673ffffffffffffffffffffffffffffffffffffffff16146119eb5760cd60000160009054906101000a900473ffffffffffffffffffffffffffffffffffffffff1673ffffffffffffffffffffffffffffffffffffffff166323b872dd3060c960000160009054906101000a900473ffffffffffffffffffffffffffffffffffffffff1660cd600101546040518463ffffffff1660e01b8152600401611816939291906130a4565b600060405180830381600087803b15801561183057600080fd5b505af1158015611844573d6000803e3d6000fd5b50505050600073ffffffffffffffffffffffffffffffffffffffff1660c960010160009054906101000a900473ffffffffffffffffffffffffffffffffffffffff1673ffffffffffffffffffffffffffffffffffffffff16036119175760cd60020160009054906101000a900473ffffffffffffffffffffffffffffffffffffffff1673ffffffffffffffffffffffffffffffffffffffff166108fc60c9600201549081150290604051600060405180830381858888f19350505050158015611911573d6000803e3d6000fd5b506119e6565b60c960010160009054906101000a900473ffffffffffffffffffffffffffffffffffffffff1673ffffffffffffffffffffffffffffffffffffffff1663a9059cbb60cd60020160009054906101000a900473ffffffffffffffffffffffffffffffffffffffff1660c9600201546040518363ffffffff1660e01b81526004016119a1929190612fcd565b6020604051808303816000875af11580156119c0573d6000803e3d6000fd5b505050506040513d601f19601f820116820180604052508101906119e49190613107565b505b611aaa565b60cd60000160009054906101000a900473ffffffffffffffffffffffffffffffffffffffff1673ffffffffffffffffffffffffffffffffffffffff166323b872dd3060cd60020160009054906101000a900473ffffffffffffffffffffffffffffffffffffffff1660cd600101546040518463ffffffff1660e01b8152600401611a77939291906130a4565b600060405180830381600087803b158015611a9157600080fd5b505af1158015611aa5573d6000803e3d6000fd5b505050505b565b6000611ada7f360894a13ba1a3210667c828492db98dca3e2076cc3735a920a3ca505d382bbc60001b611e8d565b60000160009054906101000a900473ffffffffffffffffffffffffffffffffffffffff16905090565b611b0b611c7c565b50565b611b3a7f4910fdfa16fed3260ed0e7147f7cc6da11a60208b5b9406d12a635614ffd914360001b611e97565b60000160009054906101000a900460ff1615611b5e57611b5983611ea1565b611c77565b8273ffffffffffffffffffffffffffffffffffffffff166352d1902d6040518163ffffffff1660e01b8152600401602060405180830381865afa925050508015611bc657506040513d601f19601f82011682018060405250810190611bc391906132f0565b60015b611c05576040517f08c379a0000000000000000000000000000000000000000000000000000000008152600401611bfc9061338f565b60405180910390fd5b7f360894a13ba1a3210667c828492db98dca3e2076cc3735a920a3ca505d382bbc60001b8114611c6a576040517f08c379a0000000000000000000000000000000000000000000000000000000008152600401611c6190613421565b60405180910390fd5b50611c76838383611f5a565b5b505050565b611c84611f86565b73ffffffffffffffffffffffffffffffffffffffff16611ca2610d1f565b73ffffffffffffffffffffffffffffffffffffffff1614611cf8576040517f08c379a0000000000000000000000000000000000000000000000000000000008152600401611cef9061348d565b60405180910390fd5b565b6000603360009054906101000a900473ffffffffffffffffffffffffffffffffffffffff16905081603360006101000a81548173ffffffffffffffffffffffffffffffffffffffff021916908373ffffffffffffffffffffffffffffffffffffffff1602179055508173ffffffffffffffffffffffffffffffffffffffff168173ffffffffffffffffffffffffffffffffffffffff167f8be0079c531659141344cd1fd0a4f28419497f9722a3daafe3b4186f6b6457e060405160405180910390a35050565b6000808273ffffffffffffffffffffffffffffffffffffffff163b119050919050565b600060019054906101000a900460ff16611e32576040517f08c379a0000000000000000000000000000000000000000000000000000000008152600401611e299061351f565b60405180910390fd5b611e3a611f8e565b565b600060019054906101000a900460ff16611e8b576040517f08c379a0000000000000000000000000000000000000000000000000000000008152600401611e829061351f565b60405180910390fd5b565b6000819050919050565b6000819050919050565b611eaa81611dc0565b611ee9576040517f08c379a0000000000000000000000000000000000000000000000000000000008152600401611ee0906135b1565b60405180910390fd5b80611f167f360894a13ba1a3210667c828492db98dca3e2076cc3735a920a3ca505d382bbc60001b611e8d565b60000160006101000a81548173ffffffffffffffffffffffffffffffffffffffff021916908373ffffffffffffffffffffffffffffffffffffffff16021790555050565b611f6383611fef565b600082511180611f705750805b15611f8157611f7f838361203e565b505b505050565b600033905090565b600060019054906101000a900460ff16611fdd576040517f08c379a0000000000000000000000000000000000000000000000000000000008152600401611fd49061351f565b60405180910390fd5b611fed611fe8611f86565b611cfa565b565b611ff881611ea1565b8073ffffffffffffffffffffffffffffffffffffffff167fbc7cd75a20ee27fd9adebab32041f755214dbc6bffa90cc0225b39da2e5c2d3b60405160405180910390a250565b6060612063838360405180606001604052806027815260200161372c6027913961206b565b905092915050565b60606000808573ffffffffffffffffffffffffffffffffffffffff16856040516120959190613642565b600060405180830381855af49150503d80600081146120d0576040519150601f19603f3d011682016040523d82523d6000602084013e6120d5565b606091505b50915091506120e6868383876120f1565b925050509392505050565b6060831561215357600083510361214b5761210b85611dc0565b61214a576040517f08c379a0000000000000000000000000000000000000000000000000000000008152600401612141906136a5565b60405180910390fd5b5b82905061215e565b61215d8383612166565b5b949350505050565b6000825111156121795781518083602001fd5b806040517f08c379a00000000000000000000000000000000000000000000000000000000081526004016121ad9190613709565b60405180910390fd5b6040518060c00160405280600073ffffffffffffffffffffffffffffffffffffffff16815260200160008152602001600073ffffffffffffffffffffffffffffffffffffffff16815260200160008152602001600081526020016000151581525090565b6040518060800160405280600073ffffffffffffffffffffffffffffffffffffffff168152602001600073ffffffffffffffffffffffffffffffffffffffff16815260200160008152602001600081525090565b600073ffffffffffffffffffffffffffffffffffffffff82169050919050565b60006122998261226e565b9050919050565b6122a98161228e565b82525050565b6000819050919050565b6122c2816122af565b82525050565b60008115159050919050565b6122dd816122c8565b82525050565b60c0820160008201516122f960008501826122a0565b50602082015161230c60208501826122b9565b50604082015161231f60408501826122a0565b50606082015161233260608501826122b9565b50608082015161234560808501826122b9565b5060a082015161235860a08501826122d4565b50505050565b600060c08201905061237360008301846122e3565b92915050565b6000819050919050565b600061239e6123996123948461226e565b612379565b61226e565b9050919050565b60006123b082612383565b9050919050565b60006123c2826123a5565b9050919050565b6123d2816123b7565b82525050565b60006020820190506123ed60008301846123c9565b92915050565b6000604051905090565b600080fd5b600080fd5b6124108161228e565b811461241b57600080fd5b50565b60008135905061242d81612407565b92915050565b600060208284031215612449576124486123fd565b5b60006124578482850161241e565b91505092915050565b60808201600082015161247660008501826122a0565b50602082015161248960208501826122a0565b50604082015161249c60408501826122b9565b5060608201516124af60608501826122b9565b50505050565b60006080820190506124ca6000830184612460565b92915050565b600080fd5b600080fd5b6000601f19601f8301169050919050565b7f4e487b7100000000000000000000000000000000000000000000000000000000600052604160045260246000fd5b612523826124da565b810181811067ffffffffffffffff82111715612542576125416124eb565b5b80604052505050565b60006125556123f3565b9050612561828261251a565b919050565b600067ffffffffffffffff821115612581576125806124eb565b5b61258a826124da565b9050602081019050919050565b82818337600083830152505050565b60006125b96125b484612566565b61254b565b9050828152602081018484840111156125d5576125d46124d5565b5b6125e0848285612597565b509392505050565b600082601f8301126125fd576125fc6124d0565b5b813561260d8482602086016125a6565b91505092915050565b6000806040838503121561262d5761262c6123fd565b5b600061263b8582860161241e565b925050602083013567ffffffffffffffff81111561265c5761265b612402565b5b612668858286016125e8565b9150509250929050565b6000819050919050565b61268581612672565b82525050565b60006020820190506126a0600083018461267c565b92915050565b6126af816122af565b81146126ba57600080fd5b50565b6000813590506126cc816126a6565b92915050565b60008060008060008060c087890312156126ef576126ee6123fd565b5b60006126fd89828a0161241e565b965050602061270e89828a016126bd565b955050604061271f89828a0161241e565b945050606061273089828a016126bd565b935050608061274189828a016126bd565b92505060a061275289828a0161241e565b9150509295509295509295565b6127688161228e565b82525050565b6000602082019050612783600083018461275f565b92915050565b612792816122af565b82525050565b6127a1816122c8565b82525050565b600060c0820190506127bc600083018961275f565b6127c96020830188612789565b6127d6604083018761275f565b6127e36060830186612789565b6127f06080830185612789565b6127fd60a0830184612798565b979650505050505050565b600060808201905061281d600083018761275f565b61282a602083018661275f565b6128376040830185612789565b6128446060830184612789565b95945050505050565b60008060408385031215612864576128636123fd565b5b60006128728582860161241e565b9250506020612883858286016126bd565b9150509250929050565b600082825260208201905092915050565b7f46756e6374696f6e206d7573742062652063616c6c6564207468726f7567682060008201527f64656c656761746563616c6c0000000000000000000000000000000000000000602082015250565b60006128fa602c8361288d565b91506129058261289e565b604082019050919050565b60006020820190508181036000830152612929816128ed565b9050919050565b7f46756e6374696f6e206d7573742062652063616c6c6564207468726f7567682060008201527f6163746976652070726f78790000000000000000000000000000000000000000602082015250565b600061298c602c8361288d565b915061299782612930565b604082019050919050565b600060208201905081810360008301526129bb8161297f565b9050919050565b7f555550535570677261646561626c653a206d757374206e6f742062652063616c60008201527f6c6564207468726f7567682064656c656761746563616c6c0000000000000000602082015250565b6000612a1e60388361288d565b9150612a29826129c2565b604082019050919050565b60006020820190508181036000830152612a4d81612a11565b9050919050565b7f496e697469616c697a61626c653a20636f6e747261637420697320616c72656160008201527f647920696e697469616c697a6564000000000000000000000000000000000000602082015250565b6000612ab0602e8361288d565b9150612abb82612a54565b604082019050919050565b60006020820190508181036000830152612adf81612aa3565b9050919050565b7f496e76616c6964204e465420636f6e7472616374206164647265737300000000600082015250565b6000612b1c601c8361288d565b9150612b2782612ae6565b602082019050919050565b60006020820190508181036000830152612b4b81612b0f565b9050919050565b7f496e76616c69642073656c6c6572206164647265737300000000000000000000600082015250565b6000612b8860168361288d565b9150612b9382612b52565b602082019050919050565b60006020820190508181036000830152612bb781612b7b565b9050919050565b7f53746172742074696d65206d75737420626520696e2074686520667574757265600082015250565b6000612bf460208361288d565b9150612bff82612bbe565b602082019050919050565b60006020820190508181036000830152612c2381612be7565b9050919050565b7f456e642074696d65206d7573742062652061667465722073746172742074696d60008201527f6500000000000000000000000000000000000000000000000000000000000000602082015250565b6000612c8660218361288d565b9150612c9182612c2a565b604082019050919050565b60006020820190508181036000830152612cb581612c79565b9050919050565b7f496e76616c6964207072696365206f7261636c65206164647265737300000000600082015250565b6000612cf2601c8361288d565b9150612cfd82612cbc565b602082019050919050565b60006020820190508181036000830152612d2181612ce5565b9050919050565b6000819050919050565b600060ff82169050919050565b6000612d5a612d55612d5084612d28565b612379565b612d32565b9050919050565b612d6a81612d3f565b82525050565b6000602082019050612d856000830184612d61565b92915050565b7f41756374696f6e206e6f74207374617274656420796574000000000000000000600082015250565b6000612dc160178361288d565b9150612dcc82612d8b565b602082019050919050565b60006020820190508181036000830152612df081612db4565b9050919050565b7f41756374696f6e20616c726561647920656e6465640000000000000000000000600082015250565b6000612e2d60158361288d565b9150612e3882612df7565b602082019050919050565b60006020820190508181036000830152612e5c81612e20565b9050919050565b7f41756374696f6e2068617320656e646564000000000000000000000000000000600082015250565b6000612e9960118361288d565b9150612ea482612e63565b602082019050919050565b60006020820190508181036000830152612ec881612e8c565b9050919050565b7f42696420616d6f756e74206d7573742062652067726561746572207468616e2060008201527f7a65726f00000000000000000000000000000000000000000000000000000000602082015250565b6000612f2b60248361288d565b9150612f3682612ecf565b604082019050919050565b60006020820190508181036000830152612f5a81612f1e565b9050919050565b7f45544820616d6f756e74206d69736d6174636800000000000000000000000000600082015250565b6000612f9760138361288d565b9150612fa282612f61565b602082019050919050565b60006020820190508181036000830152612fc681612f8a565b9050919050565b6000604082019050612fe2600083018561275f565b612fef6020830184612789565b9392505050565b600081519050613005816126a6565b92915050565b600060208284031215613021576130206123fd565b5b600061302f84828501612ff6565b91505092915050565b7f455448206e6f7420616363657074656420666f72204552433230206269647300600082015250565b600061306e601f8361288d565b915061307982613038565b602082019050919050565b6000602082019050818103600083015261309d81613061565b9050919050565b60006060820190506130b9600083018661275f565b6130c6602083018561275f565b6130d36040830184612789565b949350505050565b6130e4816122c8565b81146130ef57600080fd5b50565b600081519050613101816130db565b92915050565b60006020828403121561311d5761311c6123fd565b5b600061312b848285016130f2565b91505092915050565b7f426964206d75737420626520686967686572207468616e2063757272656e742060008201527f6869676865737420626964000000000000000000000000000000000000000000602082015250565b6000613190602b8361288d565b915061319b82613134565b604082019050919050565b600060208201905081810360008301526131bf81613183565b9050919050565b7f4f776e61626c653a206e6577206f776e657220697320746865207a65726f206160008201527f6464726573730000000000000000000000000000000000000000000000000000602082015250565b600061322260268361288d565b915061322d826131c6565b604082019050919050565b6000602082019050818103600083015261325181613215565b9050919050565b7f41756374696f6e206e6f7420656e646564207965740000000000000000000000600082015250565b600061328e60158361288d565b915061329982613258565b602082019050919050565b600060208201905081810360008301526132bd81613281565b9050919050565b6132cd81612672565b81146132d857600080fd5b50565b6000815190506132ea816132c4565b92915050565b600060208284031215613306576133056123fd565b5b6000613314848285016132db565b91505092915050565b7f45524331393637557067726164653a206e657720696d706c656d656e7461746960008201527f6f6e206973206e6f742055555053000000000000000000000000000000000000602082015250565b6000613379602e8361288d565b91506133848261331d565b604082019050919050565b600060208201905081810360008301526133a88161336c565b9050919050565b7f45524331393637557067726164653a20756e737570706f727465642070726f7860008201527f6961626c65555549440000000000000000000000000000000000000000000000602082015250565b600061340b60298361288d565b9150613416826133af565b604082019050919050565b6000602082019050818103600083015261343a816133fe565b9050919050565b7f4f776e61626c653a2063616c6c6572206973206e6f7420746865206f776e6572600082015250565b600061347760208361288d565b915061348282613441565b602082019050919050565b600060208201905081810360008301526134a68161346a565b9050919050565b7f496e697469616c697a61626c653a20636f6e7472616374206973206e6f74206960008201527f6e697469616c697a696e67000000000000000000000000000000000000000000602082015250565b6000613509602b8361288d565b9150613514826134ad565b604082019050919050565b60006020820190508181036000830152613538816134fc565b9050919050565b7f455243313936373a206e657720696d706c656d656e746174696f6e206973206e60008201527f6f74206120636f6e747261637400000000000000000000000000000000000000602082015250565b600061359b602d8361288d565b91506135a68261353f565b604082019050919050565b600060208201905081810360008301526135ca8161358e565b9050919050565b600081519050919050565b600081905092915050565b60005b838110156136055780820151818401526020810190506135ea565b60008484015250505050565b600061361c826135d1565b61362681856135dc565b93506136368185602086016135e7565b80840191505092915050565b600061364e8284613611565b915081905092915050565b7f416464726573733a2063616c6c20746f206e6f6e2d636f6e7472616374000000600082015250565b600061368f601d8361288d565b915061369a82613659565b602082019050919050565b600060208201905081810360008301526136be81613682565b9050919050565b600081519050919050565b60006136db826136c5565b6136e5818561288d565b93506136f58185602086016135e7565b6136fe816124da565b840191505092915050565b6000602082019050818103600083015261372381846136d0565b90509291505056fe416464726573733a206c6f772d6c6576656c2064656c65676174652063616c6c206661696c6564a26469706673582212207d609c61f0ac0a557941610e4d1dc8d72d2170379ca81afe2c38fc5bc51d7be364736f6c634300081c0033",
  "linkReferences": {},
  "deployedLinkReferences": {}
}