{
  "_format": "hh-sol-artifact-1",
  "contractName": "AuctionFactory",
  "sourceName": "contracts/AuctionFactory.sol",
  "abi": [
    {
      "inputs": [],
      "stateMutability": "nonpayable",
      "type": "constructor"
    },
    {
      "inputs": [],
      "name": "FailedDeployment",
      "type": "error"
    },
    {
      "inputs": [
        {
          "internalType": "uint256",
          "name": "balance",
          "type": "uint256"
        },
        {
          "internalType": "uint256",
          "name": "needed",
          "type": "uint256"
        }
      ],
      "name": "InsufficientBalance",
      "type": "error"
    },
    {
      "anonymous": false,
      "inputs": [
        {
          "indexed": false,
          "internalType": "address",
          "name": "previousAdmin",
          "type": "address"
        },
        {
          "indexed": false,
          "internalType": "address",
          "name": "newAdmin",
          "type": "address"
        }
      ],
      "name": "AdminChanged",
      "type": "event"
    },
    {
      "anonymous": false,
      "inputs": [
        {
          "indexed": true,
          "internalType": "address",
          "name": "beacon",
          "type": "address"
        }
      ],
      "name": "BeaconUpgraded",
      "type": "event"
    },
    {
      "anonymous": false,
      "inputs": [
        {
          "indexed": false,
          "internalType": "uint8",
          "name": "version",
          "type": "uint8"
        }
      ],
      "name": "Initialized",
      "type": "event"
    },
    {
      "anonymous": false,
      "inputs": [
        {
          "indexed": true,
          "internalType": "address",
          "name": "previousOwner",
          "type": "address"
        },
        {
          "indexed": true,
          "internalType": "address",
          "name": "newOwner",
          "type": "address"
        }
      ],
      "name": "OwnershipTransferred",
      "type": "event"
    },
    {
      "anonymous": false,
      "inputs": [
        {
          "indexed": true,
          "internalType": "address",
          "name": "implementation",
          "type": "address"
        }
      ],
      "name": "Upgraded",
      "type": "event"
    },
    {
      "inputs": [],
      "name": "auctionImplementation",
      "outputs": [
        {
          "internalType": "address",
          "name": "",
          "type": "address"
        }
      ],
      "stateMutability": "view",
      "type": "function"
    },
    {
      "inputs": [
        {
          "internalType": "uint256",
          "name": "",
          "type": "uint256"
        }
      ],
      "name": "auctions",
      "outputs": [
        {
          "internalType": "address",
          "name": "",
          "type": "address"
        }
      ],
      "stateMutability": "view",
      "type": "function"
    },
    {
      "inputs": [
        {
          "internalType": "address",
          "name": "_nftContract",
          "type": "address"
        },
        {
          "internalType": "uint256",
          "name": "_tokenId",
          "type": "uint256"
        },
        {
          "internalType": "address",
          "name": "_seller",
          "type": "address"
        },
        {
          "internalType": "uint256",
          "name": "_startTime",
          "type": "uint256"
        },
        {
          "internalType": "uint256",
          "name": "_endTime",
          "type": "uint256"
        }
      ],
      "name": "createAuction",
      "outputs": [
        {
          "internalType": "address",
          "name": "",
          "type": "address"
        }
      ],
      "stateMutability": "nonpayable",
      "type": "function"
    },
    {
      "inputs": [],
      "name": "getAuctions",
      "outputs": [
        {
          "internalType": "address[]",
          "name": "",
          "type": "address[]"
        }
      ],
      "stateMutability": "view",
      "type": "function"
    },
    {
      "inputs": [
        {
          "internalType": "address",
          "name": "_auctionImplementation",
          "type": "address"
        },
        {
          "internalType": "address",
          "name": "_priceOracle",
          "type": "address"
        }
      ],
      "name": "initialize",
      "outputs": [],
      "stateMutability": "nonpayable",
      "type": "function"
    },
    {
      "inputs": [],
      "name": "owner",
      "outputs": [
        {
          "internalType": "address",
          "name": "",
          "type": "address"
        }
      ],
      "stateMutability": "view",
      "type": "function"
    },
    {
      "inputs": [],
      "name": "priceOracle",
      "outputs": [
        {
          "internalType": "address",
          "name": "",
          "type": "address"
        }
      ],
      "stateMutability": "view",
      "type": "function"
    },
    {
      "inputs": [],
      "name": "proxiableUUID",
      "outputs": [
        {
          "internalType": "bytes32",
          "name": "",
          "type": "bytes32"
        }
      ],
      "stateMutability": "view",
      "type": "function"
    },
    {
      "inputs": [],
      "name": "renounceOwnership",
      "outputs": [],
      "stateMutability": "nonpayable",
      "type": "function"
    },
    {
      "inputs": [
        {
          "internalType": "address",
          "name": "newOwner",
          "type": "address"
        }
      ],
      "name": "transferOwnership",
      "outputs": [],
      "stateMutability": "nonpayable",
      "type": "function"
    },
    {
      "inputs": [
        {
          "internalType": "address",
          "name": "newImplementation",
          "type": "address"
        }
      ],
      "name": "upgradeTo",
      "outputs": [],
      "stateMutability": "nonpayable",
      "type": "function"
    },
    {
      "inputs": [
        {
          "internalType": "address",
          "name": "newImplementation",
          "type": "address"
        },
        {
          "internalType": "bytes",
          "name": "data",
          "type": "bytes"
        }
      ],
      "name": "upgradeToAndCall",
      "outputs": [],
      "stateMutability": "payable",
      "type": "function"
    }
  ],
  "bytecode": "0x60a06040523073ffffffffffffffffffffffffffffffffffffffff1660809073ffffffffffffffffffffffffffffffffffffffff1681525034801561004357600080fd5b5061005261005760201b60201c565b6101f1565b600060019054906101000a900460ff16156100a7576040517f08c379a000000000000000000000000000000000000000000000000000000000815260040161009e9061019a565b60405180910390fd5b60ff801660008054906101000a900460ff1660ff16146101155760ff6000806101000a81548160ff021916908360ff1602179055507f7f26b83ff96e1f2b6a682f133852f6798a09c465da95921460cefb384740249860ff60405161010c91906101d6565b60405180910390a15b565b600082825260208201905092915050565b7f496e697469616c697a61626c653a20636f6e747261637420697320696e69746960008201527f616c697a696e6700000000000000000000000000000000000000000000000000602082015250565b6000610184602783610117565b915061018f82610128565b604082019050919050565b600060208201905081810360008301526101b381610177565b9050919050565b600060ff82169050919050565b6101d0816101ba565b82525050565b60006020820190506101eb60008301846101c7565b92915050565b608051612774610228600039600081816102d3015281816103610152818161070301528181610791015261084101526127746000f3fe6080604052600436106100a75760003560e01c80636a7f3f6c116100645780636a7f3f6c146101ad578063715018a6146101d85780638da5cb5b146101ef578063d7c069191461021a578063f2df504714610245578063f2fde38b14610282576100a7565b80632630c12f146100ac5780633659cfe6146100d7578063485cc955146101005780634f1ef2861461012957806352d1902d14610145578063571a26a014610170575b600080fd5b3480156100b857600080fd5b506100c16102ab565b6040516100ce91906116f8565b60405180910390f35b3480156100e357600080fd5b506100fe60048036038101906100f99190611753565b6102d1565b005b34801561010c57600080fd5b5061012760048036038101906101229190611780565b610459565b005b610143600480360381019061013e9190611906565b610701565b005b34801561015157600080fd5b5061015a61083d565b604051610167919061197b565b60405180910390f35b34801561017c57600080fd5b50610197600480360381019061019291906119cc565b6108f6565b6040516101a491906116f8565b60405180910390f35b3480156101b957600080fd5b506101c2610935565b6040516101cf91906116f8565b60405180910390f35b3480156101e457600080fd5b506101ed61095b565b005b3480156101fb57600080fd5b5061020461096f565b60405161021191906116f8565b60405180910390f35b34801561022657600080fd5b5061022f610999565b60405161023c9190611ab7565b60405180910390f35b34801561025157600080fd5b5061026c60048036038101906102679190611ad9565b610a27565b60405161027991906116f8565b60405180910390f35b34801561028e57600080fd5b506102a960048036038101906102a49190611753565b610e1e565b005b60ca60009054906101000a900473ffffffffffffffffffffffffffffffffffffffff1681565b7f000000000000000000000000000000000000000000000000000000000000000073ffffffffffffffffffffffffffffffffffffffff163073ffffffffffffffffffffffffffffffffffffffff160361035f576040517f08c379a000000000000000000000000000000000000000000000000000000000815260040161035690611bd7565b60405180910390fd5b7f000000000000000000000000000000000000000000000000000000000000000073ffffffffffffffffffffffffffffffffffffffff1661039e610ea1565b73ffffffffffffffffffffffffffffffffffffffff16146103f4576040517f08c379a00000000000000000000000000000000000000000000000000000000081526004016103eb90611c69565b60405180910390fd5b6103fd81610ef8565b61045681600067ffffffffffffffff81111561041c5761041b6117db565b5b6040519080825280601f01601f19166020018201604052801561044e5781602001600182028036833780820191505090505b506000610f03565b50565b60008060019054906101000a900460ff1615905080801561048a5750600160008054906101000a900460ff1660ff16105b806104b7575061049930611071565b1580156104b65750600160008054906101000a900460ff1660ff16145b5b6104f6576040517f08c379a00000000000000000000000000000000000000000000000000000000081526004016104ed90611cfb565b60405180910390fd5b60016000806101000a81548160ff021916908360ff1602179055508015610533576001600060016101000a81548160ff0219169083151502179055505b61053b611094565b6105436110ed565b600073ffffffffffffffffffffffffffffffffffffffff168373ffffffffffffffffffffffffffffffffffffffff16036105b2576040517f08c379a00000000000000000000000000000000000000000000000000000000081526004016105a990611d67565b60405180910390fd5b600073ffffffffffffffffffffffffffffffffffffffff168273ffffffffffffffffffffffffffffffffffffffff1603610621576040517f08c379a000000000000000000000000000000000000000000000000000000000815260040161061890611dd3565b60405180910390fd5b8260cb60006101000a81548173ffffffffffffffffffffffffffffffffffffffff021916908373ffffffffffffffffffffffffffffffffffffffff1602179055508160ca60006101000a81548173ffffffffffffffffffffffffffffffffffffffff021916908373ffffffffffffffffffffffffffffffffffffffff16021790555080156106fc5760008060016101000a81548160ff0219169083151502179055507f7f26b83ff96e1f2b6a682f133852f6798a09c465da95921460cefb384740249860016040516106f39190611e45565b60405180910390a15b505050565b7f000000000000000000000000000000000000000000000000000000000000000073ffffffffffffffffffffffffffffffffffffffff163073ffffffffffffffffffffffffffffffffffffffff160361078f576040517f08c379a000000000000000000000000000000000000000000000000000000000815260040161078690611bd7565b60405180910390fd5b7f000000000000000000000000000000000000000000000000000000000000000073ffffffffffffffffffffffffffffffffffffffff166107ce610ea1565b73ffffffffffffffffffffffffffffffffffffffff1614610824576040517f08c379a000000000000000000000000000000000000000000000000000000000815260040161081b90611c69565b60405180910390fd5b61082d82610ef8565b61083982826001610f03565b5050565b60007f000000000000000000000000000000000000000000000000000000000000000073ffffffffffffffffffffffffffffffffffffffff163073ffffffffffffffffffffffffffffffffffffffff16146108cd576040517f08c379a00000000000000000000000000000000000000000000000000000000081526004016108c490611ed2565b60405180910390fd5b7f360894a13ba1a3210667c828492db98dca3e2076cc3735a920a3ca505d382bbc60001b905090565b60c9818154811061090657600080fd5b906000526020600020016000915054906101000a900473ffffffffffffffffffffffffffffffffffffffff1681565b60cb60009054906101000a900473ffffffffffffffffffffffffffffffffffffffff1681565b61096361113e565b61096d60006111bc565b565b6000603360009054906101000a900473ffffffffffffffffffffffffffffffffffffffff16905090565b606060c9805480602002602001604051908101604052809291908181526020018280548015610a1d57602002820191906000526020600020905b8160009054906101000a900473ffffffffffffffffffffffffffffffffffffffff1673ffffffffffffffffffffffffffffffffffffffff16815260200190600101908083116109d3575b5050505050905090565b6000610a3161113e565b600073ffffffffffffffffffffffffffffffffffffffff168673ffffffffffffffffffffffffffffffffffffffff1603610aa0576040517f08c379a0000000000000000000000000000000000000000000000000000000008152600401610a9790611f3e565b60405180910390fd5b42831015610ae3576040517f08c379a0000000000000000000000000000000000000000000000000000000008152600401610ada90611faa565b60405180910390fd5b828211610b25576040517f08c379a0000000000000000000000000000000000000000000000000000000008152600401610b1c9061203c565b60405180910390fd5b3373ffffffffffffffffffffffffffffffffffffffff168673ffffffffffffffffffffffffffffffffffffffff16636352211e876040518263ffffffff1660e01b8152600401610b75919061206b565b602060405180830381865afa158015610b92573d6000803e3d6000fd5b505050506040513d601f19601f82011682018060405250810190610bb6919061209b565b73ffffffffffffffffffffffffffffffffffffffff1614610c0c576040517f08c379a0000000000000000000000000000000000000000000000000000000008152600401610c0390612114565b60405180910390fd5b8573ffffffffffffffffffffffffffffffffffffffff1663095ea7b330876040518363ffffffff1660e01b8152600401610c47929190612134565b600060405180830381600087803b158015610c6157600080fd5b505af1158015610c75573d6000803e3d6000fd5b505050506000610ca660cb60009054906101000a900473ffffffffffffffffffffffffffffffffffffffff16611282565b90508073ffffffffffffffffffffffffffffffffffffffff1663871b6236888888888860ca60009054906101000a900473ffffffffffffffffffffffffffffffffffffffff166040518763ffffffff1660e01b8152600401610d0d9695949392919061215d565b600060405180830381600087803b158015610d2757600080fd5b505af1158015610d3b573d6000803e3d6000fd5b505050508673ffffffffffffffffffffffffffffffffffffffff166323b872dd3383896040518463ffffffff1660e01b8152600401610d7c939291906121be565b600060405180830381600087803b158015610d9657600080fd5b505af1158015610daa573d6000803e3d6000fd5b5050505060c9819080600181540180825580915050600190039060005260206000200160009091909190916101000a81548173ffffffffffffffffffffffffffffffffffffffff021916908373ffffffffffffffffffffffffffffffffffffffff1602179055508091505095945050505050565b610e2661113e565b600073ffffffffffffffffffffffffffffffffffffffff168173ffffffffffffffffffffffffffffffffffffffff1603610e95576040517f08c379a0000000000000000000000000000000000000000000000000000000008152600401610e8c90612267565b60405180910390fd5b610e9e816111bc565b50565b6000610ecf7f360894a13ba1a3210667c828492db98dca3e2076cc3735a920a3ca505d382bbc60001b611296565b60000160009054906101000a900473ffffffffffffffffffffffffffffffffffffffff16905090565b610f0061113e565b50565b610f2f7f4910fdfa16fed3260ed0e7147f7cc6da11a60208b5b9406d12a635614ffd914360001b6112a0565b60000160009054906101000a900460ff1615610f5357610f4e836112aa565b61106c565b8273ffffffffffffffffffffffffffffffffffffffff166352d1902d6040518163ffffffff1660e01b8152600401602060405180830381865afa925050508015610fbb57506040513d601f19601f82011682018060405250810190610fb891906122b3565b60015b610ffa576040517f08c379a0000000000000000000000000000000000000000000000000000000008152600401610ff190612352565b60405180910390fd5b7f360894a13ba1a3210667c828492db98dca3e2076cc3735a920a3ca505d382bbc60001b811461105f576040517f08c379a0000000000000000000000000000000000000000000000000000000008152600401611056906123e4565b60405180910390fd5b5061106b838383611363565b5b505050565b6000808273ffffffffffffffffffffffffffffffffffffffff163b119050919050565b600060019054906101000a900460ff166110e3576040517f08c379a00000000000000000000000000000000000000000000000000000000081526004016110da90612476565b60405180910390fd5b6110eb61138f565b565b600060019054906101000a900460ff1661113c576040517f08c379a000000000000000000000000000000000000000000000000000000000815260040161113390612476565b60405180910390fd5b565b6111466113f0565b73ffffffffffffffffffffffffffffffffffffffff1661116461096f565b73ffffffffffffffffffffffffffffffffffffffff16146111ba576040517f08c379a00000000000000000000000000000000000000000000000000000000081526004016111b1906124e2565b60405180910390fd5b565b6000603360009054906101000a900473ffffffffffffffffffffffffffffffffffffffff16905081603360006101000a81548173ffffffffffffffffffffffffffffffffffffffff021916908373ffffffffffffffffffffffffffffffffffffffff1602179055508173ffffffffffffffffffffffffffffffffffffffff168173ffffffffffffffffffffffffffffffffffffffff167f8be0079c531659141344cd1fd0a4f28419497f9722a3daafe3b4186f6b6457e060405160405180910390a35050565b600061128f8260006113f8565b9050919050565b6000819050919050565b6000819050919050565b6112b381611071565b6112f2576040517f08c379a00000000000000000000000000000000000000000000000000000000081526004016112e990612574565b60405180910390fd5b8061131f7f360894a13ba1a3210667c828492db98dca3e2076cc3735a920a3ca505d382bbc60001b611296565b60000160006101000a81548173ffffffffffffffffffffffffffffffffffffffff021916908373ffffffffffffffffffffffffffffffffffffffff16021790555050565b61136c836114f0565b6000825111806113795750805b1561138a57611388838361153f565b505b505050565b600060019054906101000a900460ff166113de576040517f08c379a00000000000000000000000000000000000000000000000000000000081526004016113d590612476565b60405180910390fd5b6113ee6113e96113f0565b6111bc565b565b600033905090565b6000814710156114415747826040517fcf479181000000000000000000000000000000000000000000000000000000008152600401611438929190612594565b60405180910390fd5b763d602d80600a3d3981f3363d3d373d3d3d363d730000008360601b60e81c176000526e5af43d82803e903d91602b57fd5bf38360781b176020526037600983f09050600073ffffffffffffffffffffffffffffffffffffffff168173ffffffffffffffffffffffffffffffffffffffff16036114ea576040517fb06ebf3d00000000000000000000000000000000000000000000000000000000815260040160405180910390fd5b92915050565b6114f9816112aa565b8073ffffffffffffffffffffffffffffffffffffffff167fbc7cd75a20ee27fd9adebab32041f755214dbc6bffa90cc0225b39da2e5c2d3b60405160405180910390a250565b606061156483836040518060600160405280602781526020016127186027913961156c565b905092915050565b60606000808573ffffffffffffffffffffffffffffffffffffffff1685604051611596919061262e565b600060405180830381855af49150503d80600081146115d1576040519150601f19603f3d011682016040523d82523d6000602084013e6115d6565b606091505b50915091506115e7868383876115f2565b925050509392505050565b6060831561165457600083510361164c5761160c85611071565b61164b576040517f08c379a000000000000000000000000000000000000000000000000000000000815260040161164290612691565b60405180910390fd5b5b82905061165f565b61165e8383611667565b5b949350505050565b60008251111561167a5781518083602001fd5b806040517f08c379a00000000000000000000000000000000000000000000000000000000081526004016116ae91906126f5565b60405180910390fd5b600073ffffffffffffffffffffffffffffffffffffffff82169050919050565b60006116e2826116b7565b9050919050565b6116f2816116d7565b82525050565b600060208201905061170d60008301846116e9565b92915050565b6000604051905090565b600080fd5b600080fd5b611730816116d7565b811461173b57600080fd5b50565b60008135905061174d81611727565b92915050565b6000602082840312156117695761176861171d565b5b60006117778482850161173e565b91505092915050565b600080604083850312156117975761179661171d565b5b60006117a58582860161173e565b92505060206117b68582860161173e565b9150509250929050565b600080fd5b600080fd5b6000601f19601f8301169050919050565b7f4e487b7100000000000000000000000000000000000000000000000000000000600052604160045260246000fd5b611813826117ca565b810181811067ffffffffffffffff82111715611832576118316117db565b5b80604052505050565b6000611845611713565b9050611851828261180a565b919050565b600067ffffffffffffffff821115611871576118706117db565b5b61187a826117ca565b9050602081019050919050565b82818337600083830152505050565b60006118a96118a484611856565b61183b565b9050828152602081018484840111156118c5576118c46117c5565b5b6118d0848285611887565b509392505050565b600082601f8301126118ed576118ec6117c0565b5b81356118fd848260208601611896565b91505092915050565b6000806040838503121561191d5761191c61171d565b5b600061192b8582860161173e565b925050602083013567ffffffffffffffff81111561194c5761194b611722565b5b611958858286016118d8565b9150509250929050565b6000819050919050565b61197581611962565b82525050565b6000602082019050611990600083018461196c565b92915050565b6000819050919050565b6119a981611996565b81146119b457600080fd5b50565b6000813590506119c6816119a0565b92915050565b6000602082840312156119e2576119e161171d565b5b60006119f0848285016119b7565b91505092915050565b600081519050919050565b600082825260208201905092915050565b6000819050602082019050919050565b611a2e816116d7565b82525050565b6000611a408383611a25565b60208301905092915050565b6000602082019050919050565b6000611a64826119f9565b611a6e8185611a04565b9350611a7983611a15565b8060005b83811015611aaa578151611a918882611a34565b9750611a9c83611a4c565b925050600181019050611a7d565b5085935050505092915050565b60006020820190508181036000830152611ad18184611a59565b905092915050565b600080600080600060a08688031215611af557611af461171d565b5b6000611b038882890161173e565b9550506020611b14888289016119b7565b9450506040611b258882890161173e565b9350506060611b36888289016119b7565b9250506080611b47888289016119b7565b9150509295509295909350565b600082825260208201905092915050565b7f46756e6374696f6e206d7573742062652063616c6c6564207468726f7567682060008201527f64656c656761746563616c6c0000000000000000000000000000000000000000602082015250565b6000611bc1602c83611b54565b9150611bcc82611b65565b604082019050919050565b60006020820190508181036000830152611bf081611bb4565b9050919050565b7f46756e6374696f6e206d7573742062652063616c6c6564207468726f7567682060008201527f6163746976652070726f78790000000000000000000000000000000000000000602082015250565b6000611c53602c83611b54565b9150611c5e82611bf7565b604082019050919050565b60006020820190508181036000830152611c8281611c46565b9050919050565b7f496e697469616c697a61626c653a20636f6e747261637420697320616c72656160008201527f647920696e697469616c697a6564000000000000000000000000000000000000602082015250565b6000611ce5602e83611b54565b9150611cf082611c89565b604082019050919050565b60006020820190508181036000830152611d1481611cd8565b9050919050565b7f496e76616c69642061756374696f6e20696d706c656d656e746174696f6e0000600082015250565b6000611d51601e83611b54565b9150611d5c82611d1b565b602082019050919050565b60006020820190508181036000830152611d8081611d44565b9050919050565b7f496e76616c6964207072696365206f7261636c65000000000000000000000000600082015250565b6000611dbd601483611b54565b9150611dc882611d87565b602082019050919050565b60006020820190508181036000830152611dec81611db0565b9050919050565b6000819050919050565b600060ff82169050919050565b6000819050919050565b6000611e2f611e2a611e2584611df3565b611e0a565b611dfd565b9050919050565b611e3f81611e14565b82525050565b6000602082019050611e5a6000830184611e36565b92915050565b7f555550535570677261646561626c653a206d757374206e6f742062652063616c60008201527f6c6564207468726f7567682064656c656761746563616c6c0000000000000000602082015250565b6000611ebc603883611b54565b9150611ec782611e60565b604082019050919050565b60006020820190508181036000830152611eeb81611eaf565b9050919050565b7f496e76616c6964204e465420636f6e7472616374000000000000000000000000600082015250565b6000611f28601483611b54565b9150611f3382611ef2565b602082019050919050565b60006020820190508181036000830152611f5781611f1b565b9050919050565b7f53746172742074696d65206d75737420626520696e2074686520667574757265600082015250565b6000611f94602083611b54565b9150611f9f82611f5e565b602082019050919050565b60006020820190508181036000830152611fc381611f87565b9050919050565b7f456e642074696d65206d7573742062652061667465722073746172742074696d60008201527f6500000000000000000000000000000000000000000000000000000000000000602082015250565b6000612026602183611b54565b915061203182611fca565b604082019050919050565b6000602082019050818103600083015261205581612019565b9050919050565b61206581611996565b82525050565b6000602082019050612080600083018461205c565b92915050565b60008151905061209581611727565b92915050565b6000602082840312156120b1576120b061171d565b5b60006120bf84828501612086565b91505092915050565b7f4e6f74206f776e6572206f66204e465400000000000000000000000000000000600082015250565b60006120fe601083611b54565b9150612109826120c8565b602082019050919050565b6000602082019050818103600083015261212d816120f1565b9050919050565b600060408201905061214960008301856116e9565b612156602083018461205c565b9392505050565b600060c08201905061217260008301896116e9565b61217f602083018861205c565b61218c60408301876116e9565b612199606083018661205c565b6121a6608083018561205c565b6121b360a08301846116e9565b979650505050505050565b60006060820190506121d360008301866116e9565b6121e060208301856116e9565b6121ed604083018461205c565b949350505050565b7f4f776e61626c653a206e6577206f776e657220697320746865207a65726f206160008201527f6464726573730000000000000000000000000000000000000000000000000000602082015250565b6000612251602683611b54565b915061225c826121f5565b604082019050919050565b6000602082019050818103600083015261228081612244565b9050919050565b61229081611962565b811461229b57600080fd5b50565b6000815190506122ad81612287565b92915050565b6000602082840312156122c9576122c861171d565b5b60006122d78482850161229e565b91505092915050565b7f45524331393637557067726164653a206e657720696d706c656d656e7461746960008201527f6f6e206973206e6f742055555053000000000000000000000000000000000000602082015250565b600061233c602e83611b54565b9150612347826122e0565b604082019050919050565b6000602082019050818103600083015261236b8161232f565b9050919050565b7f45524331393637557067726164653a20756e737570706f727465642070726f7860008201527f6961626c65555549440000000000000000000000000000000000000000000000602082015250565b60006123ce602983611b54565b91506123d982612372565b604082019050919050565b600060208201905081810360008301526123fd816123c1565b9050919050565b7f496e697469616c697a61626c653a20636f6e7472616374206973206e6f74206960008201527f6e697469616c697a696e67000000000000000000000000000000000000000000602082015250565b6000612460602b83611b54565b915061246b82612404565b604082019050919050565b6000602082019050818103600083015261248f81612453565b9050919050565b7f4f776e61626c653a2063616c6c6572206973206e6f7420746865206f776e6572600082015250565b60006124cc602083611b54565b91506124d782612496565b602082019050919050565b600060208201905081810360008301526124fb816124bf565b9050919050565b7f455243313936373a206e657720696d706c656d656e746174696f6e206973206e60008201527f6f74206120636f6e747261637400000000000000000000000000000000000000602082015250565b600061255e602d83611b54565b915061256982612502565b604082019050919050565b6000602082019050818103600083015261258d81612551565b9050919050565b60006040820190506125a9600083018561205c565b6125b6602083018461205c565b9392505050565b600081519050919050565b600081905092915050565b60005b838110156125f15780820151818401526020810190506125d6565b60008484015250505050565b6000612608826125bd565b61261281856125c8565b93506126228185602086016125d3565b80840191505092915050565b600061263a82846125fd565b915081905092915050565b7f416464726573733a2063616c6c20746f206e6f6e2d636f6e7472616374000000600082015250565b600061267b601d83611b54565b915061268682612645565b602082019050919050565b600060208201905081810360008301526126aa8161266e565b9050919050565b600081519050919050565b60006126c7826126b1565b6126d18185611b54565b93506126e18185602086016125d3565b6126ea816117ca565b840191505092915050565b6000602082019050818103600083015261270f81846126bc565b90509291505056fe416464726573733a206c6f772d6c6576656c2064656c65676174652063616c6c206661696c6564a264697066735822122081c6c4eba6bc207b1ba1d60be40e088becdab8f2213aa06f33968be4466d442b64736f6c634300081c0033",
  "linkReferences": {},
  "deployedLinkReferences": {}
}